{
    "contractName": "readWrite",
    "abi": [
        {
            "inputs": [],
            "name": "age",
            "outputs": [
                {
                    "internalType": "uint256",
                    "name": "",
                    "type": "uint256"
                }
            ],
            "stateMutability": "view",
            "type": "function"
        },
        {
            "inputs": [],
            "name": "name",
            "outputs": [
                {
                    "internalType": "string",
                    "name": "",
                    "type": "string"
                }
            ],
            "stateMutability": "view",
            "type": "function"
        },
        {
            "inputs": [
                {
                    "internalType": "uint256",
                    "name": "_age",
                    "type": "uint256"
                }
            ],
            "name": "setAge",
            "outputs": [
                {
                    "internalType": "uint256",
                    "name": "",
                    "type": "uint256"
                }
            ],
            "stateMutability": "nonpayable",
            "type": "function"
        },
        {
            "inputs": [
                {
                    "internalType": "string",
                    "name": "_name",
                    "type": "string"
                }
            ],
            "name": "setName",
            "outputs": [
                {
                    "internalType": "string",
                    "name": "",
                    "type": "string"
                }
            ],
            "stateMutability": "nonpayable",
            "type": "function"
        }
    ],
    "bytecode": "60c060405260066080819052657863726f6e6560d01b60a0908152610027916000919061003f565b50601560015534801561003957600080fd5b50610113565b82805461004b906100d8565b90600052602060002090601f01602090048101928261006d57600085556100b3565b82601f1061008657805160ff19168380011785556100b3565b828001600101855582156100b3579182015b828111156100b3578251825591602001919060010190610098565b506100bf9291506100c3565b5090565b5b808211156100bf57600081556001016100c4565b6002810460018216806100ec57607f821691505b6020821081141561010d57634e487b7160e01b600052602260045260246000fd5b50919050565b610398806101226000396000f3fe608060405234801561001057600080fd5b506004361061004c5760003560e01c806306fdde0314610051578063262a9dff1461006f578063c47f002714610084578063d5dcf12714610097575b600080fd5b6100596100aa565b60405161006691906102b5565b60405180910390f35b610077610138565b6040516100669190610308565b6100596100923660046101fc565b61013e565b6100776100a536600461029d565b61015b565b600080546100b790610311565b80601f01602080910402602001604051908101604052809291908181526020018280546100e390610311565b80156101305780601f1061010557610100808354040283529160200191610130565b820191906000526020600020905b81548152906001019060200180831161011357829003601f168201915b505050505081565b60015481565b8051606090610154906000906020850190610163565b5090919050565b600181905590565b82805461016f90610311565b90600052602060002090601f01602090048101928261019157600085556101d7565b82601f106101aa57805160ff19168380011785556101d7565b828001600101855582156101d7579182015b828111156101d75782518255916020019190600101906101bc565b506101e39291506101e7565b5090565b5b808211156101e357600081556001016101e8565b6000602080838503121561020e578182fd5b823567ffffffffffffffff80821115610225578384fd5b818501915085601f830112610238578384fd5b81358181111561024a5761024a61034c565b604051601f8201601f191681018501838111828210171561026d5761026d61034c565b6040528181528382018501881015610283578586fd5b818585018683013790810190930193909352509392505050565b6000602082840312156102ae578081fd5b5035919050565b6000602080835283518082850152825b818110156102e1578581018301518582016040015282016102c5565b818111156102f25783604083870101525b50601f01601f1916929092016040019392505050565b90815260200190565b60028104600182168061032557607f821691505b6020821081141561034657634e487b7160e01b600052602260045260246000fd5b50919050565b634e487b7160e01b600052604160045260246000fdfea26469706673582212202315a331a3dc63d15074bbadb9571414340b5b72b48a34859842eca03806489664736f6c63430008000033",
    "sourcePath": "/Users/zahir/TEST/blockchain/learn_solidity/readWrite.sol",
    "compiler": {
        "name": "solc",
        "version": "0.8.0+commit.c7dfd78e"
    },
    "functionHashes": {
        "age()": "262a9dff",
        "name()": "06fdde03",
        "setAge(uint256)": "d5dcf127",
        "setName(string)": "c47f0027"
    },
    "gasEstimates": {
        "creation": {
            "codeDepositCost": "184000",
            "executionCost": "infinite",
            "totalCost": "infinite"
        },
        "external": {
            "age()": "1028",
            "name()": "infinite",
            "setAge(uint256)": "20355",
            "setName(string)": "infinite"
        }
    }
}