{
    "contractName": "TestRead",
    "abi": [
        {
            "inputs": [],
            "name": "age",
            "outputs": [
                {
                    "internalType": "uint256",
                    "name": "",
                    "type": "uint256"
                }
            ],
            "stateMutability": "view",
            "type": "function"
        },
        {
            "inputs": [],
            "name": "name",
            "outputs": [
                {
                    "internalType": "string",
                    "name": "",
                    "type": "string"
                }
            ],
            "stateMutability": "view",
            "type": "function"
        }
    ],
    "bytecode": "60c060405260066080819052657863726f6e6560d01b60a0908152610027916000919061003f565b50601560015534801561003957600080fd5b50610113565b82805461004b906100d8565b90600052602060002090601f01602090048101928261006d57600085556100b3565b82601f1061008657805160ff19168380011785556100b3565b828001600101855582156100b3579182015b828111156100b3578251825591602001919060010190610098565b506100bf9291506100c3565b5090565b5b808211156100bf57600081556001016100c4565b6002810460018216806100ec57607f821691505b6020821081141561010d57634e487b7160e01b600052602260045260246000fd5b50919050565b6101cf806101226000396000f3fe608060405234801561001057600080fd5b50600436106100365760003560e01c806306fdde031461003b578063262a9dff14610059575b600080fd5b61004361006e565b6040516100509190610102565b60405180910390f35b6100616100fc565b6040516100509190610155565b6000805461007b9061015e565b80601f01602080910402602001604051908101604052809291908181526020018280546100a79061015e565b80156100f45780601f106100c9576101008083540402835291602001916100f4565b820191906000526020600020905b8154815290600101906020018083116100d757829003601f168201915b505050505081565b60015481565b6000602080835283518082850152825b8181101561012e57858101830151858201604001528201610112565b8181111561013f5783604083870101525b50601f01601f1916929092016040019392505050565b90815260200190565b60028104600182168061017257607f821691505b6020821081141561019357634e487b7160e01b600052602260045260246000fd5b5091905056fea2646970667358221220aa433bfaaa6c563335b8dea0325e1cf713c5cbfe0c6584722f04186ae25289b164736f6c63430008000033",
    "sourcePath": "/Users/zahir/TEST/blockchain/learn_solidity/read.sol",
    "compiler": {
        "name": "solc",
        "version": "0.8.0+commit.c7dfd78e"
    },
    "functionHashes": {
        "age()": "262a9dff",
        "name()": "06fdde03"
    },
    "gasEstimates": {
        "creation": {
            "codeDepositCost": "92600",
            "executionCost": "infinite",
            "totalCost": "infinite"
        },
        "external": {
            "age()": "1028",
            "name()": "infinite"
        }
    }
}